:100000000C94E12C0C940D2D0C940D2D0C940D2DB5
:100010000C940D2D0C940D2D0C940D2D0C940D2D78
:100020000C940D2D0C940D2D0C940D2D0C940D2D68
:100030000C940D2D0C940D2D0C940D2D0C940D2D58
:100040000C940D2D0C940D2D0C940D2D0C940D2D48
:100050000C940D2D0C940D2D0C940D2D0C94D69507
:100060000C940D2D0C940D2D0C940D2D0C940D2D28
:100070000C940D2D0C940D2D0C940D2D0C940D2D18
:100080000C940D2D0C940D2D0C940D2D0C940D2D08
:100090000C948C960C940D2D0C940D2D0C940D2D10
:1000A0000C940D2D0C940D2D0C940D2D0C940D2DE8
:1000B0000C940D2D0C940D2D0C940D2D0C940D2DD8
:1000C0000C940D2D0C940D2D0C940D2D0C940D2DC8
:1000D0000C940D2D0C940D2D0C940D2D0C940D2DB8
:1000E0000C940D2D577561756B756E7573757B75F9
:1000F00083759075A175B875CF75DD75ED75517601
:1001000068768D762A7605A84CCDB2D44EB93836AD
:10011000A9020C50B9918688083CA6AAAA2ABE005A
:100120000000803F48657273686579206465666188
:10013000756C740020314A5A0020204D57524652A7
:100140005420525259515A525B535A52590020204E
:100150004A5A4E464E4D20525646564D0020204893
:100160005D53424C6220525942526220524C4F5AC7
:100170004F20524B555955002020485C5042505F4B
:1001800020525442545F20525949574754465046D2
:100190004D474B494B4B4C4D4D4E4F4F5551575280
:1001A000585359555958575A545B505B4D5A4B58F0
:1001B000002020465E5B46495B20524E4650485028
:1001C0004A4F4C4D4D4B4D494B49494A474C464E81
:1001D0004650475348564859475B46205257545556
:1001E0005554575459565B585B5A5A5B585B56598D
:1001F000545754002020455F5C4F5C4E5B4D5A4D78
:10020000594E585056555458525A505B4C5B4A5AA6
:1002100049594857485549534A52514E524D534BEC
:100220005349524750464E474D494D4B4E4E505103
:100230005558575A595B0020204D57524851475244
:100240004653475349524B514C0020204B5956427C
:1002500054445247504B4F504F545059525D546084
:1002600056620020204B594E4250445247544B5541
:100270005055545459525D50604E620020204A5AE5
:10028000524C525820524D4F57552052574F4D55B2
:10029000002020455F5249525B205249525B520078
:1002A00020204E5653575258515752565357535970
:1002B000515B002020455F49525B520020204E5682
:1002C00052565157525853575256002020475D5BA3
:1002D000424962002020485C51464E474C4A4B4FF1
:1002E0004B524C574E5A515B535B565A58575952C2
:1002F000594F584A564753465146002020485C4EB5
:100300004A50495346535B002020485C4C4B4C4AB2
:100310004D484E475046544656475748584A584C01
:10032000574E55514B5B595B002020485C4D465859
:1003300046524E554E574F58505953595558585686
:100340005A535B505B4D5A4C594B57002020485C28
:1003500055464B545A5420525546555B0020204870
:100360005C57464D464C4F4D4E504D534D564E5892
:1003700050595359555858565A535B505B4D5A4C27
:10038000594B57002020485C58495747544652461D
:100390004F474D4A4C4F4C544D584F5A525B535B4C
:1003A000565A5858595559545851564F534E524E03
:1003B0004F4F4D514C54002020485C59464F5B2014
:1003C000524B465946002020485C50464D474C4908
:1003D0004C4B4D4D4F4E534F565058525954595700
:1003E0005859575A545B505B4D5A4C594B574B54C4
:1003F0004C524E50514F554E574D584B58495747F8
:1004000054465046002020485C584D575055525293
:100410005351534E524C504B4D4B4C4C494E4751FF
:1004200046524655475749584D58525757555A52B4
:100430005B505B4D5A4C580020204E56524F515045
:1004400052515350524F20525256515752585357AF
:1004500052560020204E56524F5150525153505236
:100460004F20525357525851575256535753595180
:100470005B002020465E5A494A525A5B00202045C4
:100480005F494F5B4F205249555B55002020465E27
:100490004A495A524A5B002020495B4C4B4C4A4D1A
:1004A000484E475046544656475748584A584C5766
:1004B0004E564F5251525420525259515A525B5338
:1004C0005A52590020204560574E564C544B514BC0
:1004D0004F4C4E4D4D504D534E555056535655550D
:1004E00056532052514B4F4D4E504E534F55505630
:1004F0002052574B5653565558565A565C545D51D8
:100500005D4F5C4C5B4A002020495B52464A5B20B1
:100510005252465A5B20524D545754002020475C9B
:100520004B464B5B20524B46544657475848594A16
:10053000594C584E574F545020524B5054505751CD
:100540005852595459575859575A545B4B5B0020CD
:1005500020485D5A4B59495747554651464F474DDC
:10056000494C4B4B4E4B534C564D584F5A515B5583
:100570005B575A59585A56002020475C4B464B5BF4
:1005800020524B46524655475749584B594E59539E
:1005900058565758555A525B4B5B002020485B4CCD
:1005A000464C5B20524C46594620524C50545020E9
:1005B000524C5B595B002020485A4C464C5B205201
:1005C0004C46594620524C505450002020485D5A09
:1005D0004B59495747554651464F474D494C4B4B50
:1005E0004E4B534C564D584F5A515B555B575A59C9
:1005F000585A565A53205255535A53002020475D9B
:100600004B464B5B20525946595B20524B50595038
:100610000020204E565246525B0020204A5A564631
:1006200056565559545A525B505B4E5A4D594C567A
:100630004C54002020475C4B464B5B205259464BA4
:10064000542052504F595B00202048594C464C5B77
:100650004C5B585B002020465E4A464A5B20524A6B
:1006600046525B20525A46525B20525A465A5B0011
:100670002020475D4B464B5B20524B46595B205236
:100680005946595B002020475D50464E474C494B28
:100690004B4A4E4A534B564C584E5A505B545B563D
:1006A0005A585859565A535A4E594B584956475406
:1006B000465046002020475C4B464B5B20524B4641
:1006C000544657475848594A594D584F5750545116
:1006D0004B51002020475D50464E474C494B4B4AFA
:1006E0004E4A534B564C584E5A505B545B565A58D0
:1006F0005859565A535A4E594B58495647544650D2
:100700004620525357595D002020475C4B464B5BB7
:1007100020524B46544657475848594A594C584E10
:10072000574F54504B5020525250595B0020204894
:100730005C59495747544650464D474B494B4B4CE3
:100740004D4D4E4F4F555157525853595559585773
:100750005A545B505B4D5A4B580020204A5A52461F
:10076000525B20524B465946002020475D4B464B7A
:10077000554C584E5A515B535B565A585859555917
:1007800046002020495B4A46525B20525A46525B43
:10079000002020465E48464D5B205252464D5B206D
:1007A000525246575B20525C46575B002020485C03
:1007B0004B46595B205259464B5B002020495B4A0F
:1007C000465250525B20525A465250002020485CFC
:1007D00059464B5B20524B46594620524B5B595B66
:1007E0000020204B594F424F62205250425062200D
:1007F000524F42564220524F6256620020204B59BF
:100800004B46595E0020204B5954425462205255A9
:1008100042556220524E42554220524E625562006D
:1008200020204A5A52444A52205252445A520020DE
:1008300020495B49625B620020204E56534B514D6C
:10084000514F5250534F524E514F002020495C5847
:100850004D585B20525850564E544D514D4F4E4DB1
:10086000504C534C554D584F5A515B545B565A5847
:1008700058002020485B4C464C5B20524C504E4E5A
:10088000504D534D554E5750585358555758555A2B
:10089000535B505B4E5A4C58002020495B585056D1
:1008A0004E544D514D4F4E4D504C534C554D584F4D
:1008B0005A515B545B565A5858002020495C5846A0
:1008C000585B20525850564E544D514D4F4E4D503E
:1008D0004C534C554D584F5A515B545B565A5858CF
:1008E000002020495B4C5358535851574F564E5493
:1008F0004D514D4F4E4D504C534C554D584F5A51F4
:100900005B545B565A58580020204D59574655465F
:100910005347524A525B20524F4D564D00202049BA
:100920005C584D585D57605661546251624F61206A
:10093000525850564E544D514D4F4E4D504C534CB5
:10094000554D584F5A515B545B565A585800202009
:10095000495C4D464D5B20524D51504E524D554DC8
:10096000574E5851585B0020204E5651465247531F
:1009700046524551462052524D525B0020204D5761
:10098000524653475446534552462052534D535EA8
:10099000526150624E62002020495A4D464D5B2004
:1009A00052574D4D5720525153585B0020204E5600
:1009B0005246525B0020204361474D475B2052471F
:1009C000514A4E4C4D4F4D514E5251525B20525256
:1009D00051554E574D5A4D5C4E5D515D5B00202088
:1009E000495C4D4D4D5B20524D51504E524D554D31
:1009F000574E5851585B002020495C514D4F4E4D89
:100A0000504C534C554D584F5A515B545B565A58A5
:100A100058595559535850564E544D514D00202059
:100A2000485B4C4D4C6220524C504E4E504D534DF5
:100A3000554E5750585358555758555A535B505B5D
:100A40004E5A4C58002020495C584D58622052584C
:100A500050564E544D514D4F4E4D504C534C554D9C
:100A6000584F5A515B545B565A58580020204B58E7
:100A70004F4D4F5B20524F535050524E544D574D97
:100A80000020204A5B5850574E544D514D4E4E4D0C
:100A9000504E5250535554575558575858575A540A
:100AA0005B515B4E5A4D580020204D5952465257CB
:100AB000535A555B575B20524F4D564D00202049ED
:100AC0005C4D4D4D574E5A505B535B555A5857200D
:100AD00052584D585B0020204A5A4C4D525B2052D0
:100AE000584D525B002020475D4A4D4E5B205252CC
:100AF0004D4E5B2052524D565B20525A4D565B0074
:100B000020204A5B4D4D585B2052584D4D5B0020D4
:100B1000204A5A4C4D525B2052584D525B505F4E0A
:100B2000614C624B620020204A5B584D4D5B205265
:100B30004D4D584D20524D5B585B0020204B595471
:100B4000425243514450465048514A524B534D53E0
:100B50004F515120525243514551475249534A54E3
:100B60004C544E53504F52535454565458535A5257
:100B70005B515D515F52612052515353550020200B
:100B80004E56524252620020204B5950425243531B
:100B90004454465448534A524B514D514F5351209F
:100BA000525243534553475249514A504C504E516B
:100BB000505552515450565058515A525B535D53F0
:100BC0005F5261205253535155002020465E4955D3
:100BD00049534A504C4F4E4F50505453565458540A
:100BE0005A535B51205249534A514C504E50505128
:100BF0005454565558555A545B515B4F0020204A67
:100C00005A4A464A5B4B5B4B464C464C5B4D5B4DF0
:100C1000464E464E5B4F5B4F465046505B515B51D4
:100C2000465246525B535B53465446545B555B55A4
:100C3000465646565B575B57465846585B595B5974
:100C4000465A465A5B002020002401340139014EE7
:100C5000015D017801B101F40137024A0263027CAF
:100C6000029102A002B302BC02CB02D402FB020832
:100C70000329034C035D038403B703C6030504384B
:100C800004530472047D048C049704C40407051CF7
:100C9000054F0578059B05B605CB05FC0511061A21
:100CA0000633064806550670068506B406D30608C0
:100CB000072D075A07690782079107AC07BB07CCC6
:100CC00007E107FC07050820082F0838084B0872C1
:100CD000089908BA08E10808091D094E0967097C46
:100CE000099709AC09B509DE09F7091E0A450A6C1E
:100CF0000A810AA80ABD0AD60AE50A000B0F0B26CC
:100D00000B3B0B7E0B870BCA0BFD0B526F776D6194
:100D10006E20547269706C65780020314A5A003335
:100D2000344D585246514751495251205252465221
:100D3000545354205252465346535420525346540F
:100D40004754495351205252585159515A525B53AA
:100D50005B545A54595358525820525259525A536C
:100D60005A53595259003232495B4E464D474D4D08
:100D700020524E474D4D20524E464F474D4D20522A
:100D800057465647564D20525747564D20525746C4
:100D90005847564D003132485D53464C62205259F7
:100DA00046526220524C515A5120524B57595700CB
:100DB0003536485C5042505F20525442545F2052B6
:100DC000584B584A574A574C594C594A5848574714
:100DD000544650464D474B494B4C4C4E4F50555244
:100DE000575358555858575A20524C4C4D4E4F4F08
:100DF00055515752585420524D474C494C4B4D4D2C
:100E00004F4E55505852595459575859575A545B88
:100E1000505B4D5A4C594B574B554D554D574C57B0
:100E20004C56003332465E5B46495B20524E46507C
:100E300048504A4F4C4D4D4B4D494B49494A474C00
:100E4000464E4650475348564859475B46205257EE
:100E500054555554575459565B585B5A5A5B585B16
:100E60005659545754003734455F5B4F5B4E5A4ECA
:100E70005A505C505C4E5B4D5A4D594E5850565529
:100E80005458525A505B4C5B4A5A495849554A5338
:100E9000504F524D534B5349524750464E474D4980
:100EA0004D4C4E4F50525457575A595B5B5B5C59EF
:100EB0005C5820524B5A4A584A554B534C52205278
:100EC000524D53492052534B524720524E474D4B9F
:100ED00020524E4E505154565759595A20524E5B3B
:100EE0004C5A4B584B554C53504F20524D494E4D38
:100EF0005151555658595A5A5B5A5C590032344D23
:100F00005854485349524951485147524653465400
:100F100047544A534C514D2052524752485348531C
:100F200047524720525349544A20525448534C0088
:100F300032374B595542534451474F4B4E504E5404
:100F40004F59515D5360556220525148504B4F4F9D
:100F50004F555059515C2052534452465149504FBD
:100F60005055515B525E53600032374B594F4251DE
:100F7000445347554B565056545559535D51604F45
:100F80006220525348544B554F55555459535C2089
:100F900052514452465349544F5455535B525E513B
:100FA000600033394A5A52465147535152522052E7
:100FB0005246525220525246534751515252205299
:100FC0004D494E49564F574F20524D49574F205289
:100FD0004D494D4A574E574F2052574956494E4F4B
:100FE0004D4F205257494D4F20525749574A4D4E69
:100FF0004D4F003136465F5249525A535A20525291
:10100000495349535A20524A515B515B5220524A2C
:10101000514A525B520032344D58545A535B525B22
:10102000515A5159525853585459545C535E515F58
:1010300020525259525A535A535952592052535BC3
:10104000545C2052545A535E002038465F4A515B2C
:10105000515B5220524A514A525B520031364D5830
:1010600052585159515A525B535B545A5459535820
:10107000525820525259525A535A535952590020D9
:1010800038475E5B4249624A6220525B425C424A98
:1010900062003530485C51464E474C4A4B4F4B52EC
:1010A0004C574E5A515B535B565A58575952594FE9
:1010B000584A56475346514620524E484D4A4C4E88
:1010C0004C534D574E592052565957575853584E16
:1010D000574A5648205251464F474E494D4E4D5360
:1010E0004E584F5A515B2052535B555A56585753DE
:1010F000574E564955475346003238485C5148517F
:101100005B20525248525A20525346535B2052534E
:101110004650494E4A20524D5B575B2052515A4F20
:101120005B20525159505B20525359545B2052530B
:101130005A555B003632485C4C4A4C4B4D4B4D4A3D
:101140004C4A20524C494D494E4A4E4B4D4C4C4C0A
:101150004B4B4B4A4C484D475046544657475848CE
:10116000594A594C584E555050524E534C554B5865
:101170004B5B20525748584A584C574E20525446C1
:101180005647574A574C564E5450505220524B597E
:101190004C584E5853595759595820524E58535A33
:1011A000575A585920524E58535B575B585A595802
:1011B0005956003736485C4C4A4C4B4D4B4D4A4CC7
:1011C0004A20524C494D494E4A4E4B4D4C4C4C4B8B
:1011D0004B4B4A4C484D4750465446574758495840
:1011E0004C574E544F205256475749574C564E2055
:1011F00052534655475649564C554E534F2052511F
:101200004F544F56505852595459575859575A5489
:101210005B505B4D5A4C594B574B564C554D554EA8
:10122000564E574D584C58205257525854585757AD
:10123000592052534F5550565157545757565A5498
:101240005B20524C564C574D574D564C5600323839
:10125000485C5349535B20525448545A20525546D7
:10126000555B205255464A555A552052505B585BA3
:101270002052535A515B20525359525B20525559B8
:10128000565B2052555A575B003535485C4D464BEE
:10129000504D4E504D534D564E5850595359555828
:1012A00058565A535B505B4D5A4C594B574B564C02
:1012B000554D554E564E574D584C58205257505834
:1012C00052585657582052534D554E564F57525715
:1012D000565659555A535B20524C564C574D574D04
:1012E000564C5620524D46574620524D47554720A2
:1012F000524D48514855475746003639485C564983
:10130000564A574A57495649205257485648554910
:10131000554A564B574B584A5849574755465246D7
:101320004F474D494C4B4B4F4B554C584E5A515BC8
:10133000535B565A5858595559545851564F534E55
:10134000514E4F4F4E504D5220524E494D4B4C4FE7
:101350004C554D584E59205257585856585357517E
:101360002052524650474F484E4A4D4E4D554E58CA
:101370004F5A515B2052535B555A56595756575343
:101380005650554F534E003433485C4B464B4C201F
:101390005259465949584C545153535257525B2055
:1013A00052535252545157515B2052584C53515141
:1013B000545057505B525B20524B4A4C484E46505B
:1013C00046554957495848594620524D484E47506E
:1013D00047524820524B4A4C494E485048554900C4
:1013E0003739485C50464D474C494C4C4D4E504F58
:1013F000544F574E584C5849574754465046205220
:101400004E474D494D4C4E4E2052564E574C574923
:101410005647205250464F474E494E4C4F4E504F24
:101420002052544F554E564C56495547544620521B
:10143000504F4D504C514B534B574C594D5A505B9C
:10144000545B575A58595957595358515750544F3C
:1014500020524D514C534C574D59205257595857C3
:10146000585357512052504F4E504D534D574E5A8E
:10147000505B2052545B565A575757535650544F4F
:10148000003639485C4D574D584E584E574D5720F1
:1014900052574F56515552535351534E524C504B35
:1014A0004D4B4C4C494E4751465346564758495967
:1014B0004C595258565758555A525B4F5B4D5A4CDF
:1014C000584C574D564E564F574F584E594D592020
:1014D000524D504C4E4C4B4D49205256485749584E
:1014E0004C585257565658205251534F524E514D08
:1014F0004E4D4B4E484F4751462052534655475646
:1015000049574C575356575559545A525B0033322A
:101510004D58524D514E514F52505350544F544EBE
:10152000534D524D2052524E524F534F534E524EE6
:10153000205252585159515A525B535B545A545984
:101540005358525820525259525A535A5359525979
:101550000034304D58524D514E514F52505350540B
:101560004F544E534D524D2052524E524F534F53A3
:101570004E524E2052545A535B525B515A5159525B
:101580005853585459545C535E515F20525259522B
:101590005A535A535952592052535B545C20525457
:1015A0005A535E002034465E5A494A525A5B003113
:1015B00036465F4A4D5B4D5B4E20524A4D4A4E5B6C
:1015C0004E20524A555B555B5620524A554A565B4F
:1015D00056002034465E4A495A524A5B0035324929
:1015E0005C4D4B4D4A4E4A4E4C4C4C4C4A4D484E2D
:1015F000475046544657475848594A594C584E57F1
:101600004F5351205257485849584D574E20525425
:101610004656475749574D564F55502052525152F2
:1016200054535453515251205252585159515A52B5
:101630005B535B545A545953585258205252595282
:101640005A535A535952590035364560574E564CE5
:10165000544B514B4F4C4E4D4D504D534E55505693
:101660005356555556532052514B4F4D4E504E5395
:101670004F5550562052574B5653565558565A565A
:101680005C545D515D4F5C4C5B4A5948574754462A
:1016900051464E474C484A4A494C484F4852495592
:1016A0004A574C594E5A515B545B575A59595A58DC
:1016B0002052584B575357555856003336485C52B2
:1016C000464B5A20525149575B20525249585B2091
:1016D000525246595B20524D5556552052495B4F48
:1016E0005B2052545B5B5B20524B5A4A5B20524B4F
:1016F0005A4D5B2052575A555B20525759565B2022
:101700005258595A5B003738475D4C464C5B205263
:101710004D474D5A20524E464E5B20524946554643
:10172000584759485A4A5A4C594E584F55502052CA
:101730005848594A594C584E2052554657475849CF
:10174000584D574F555020524E50555058515952A0
:101750005A545A575959585A555B495B2052585256
:101760005954595758592052555057515853585851
:10177000575A555B20524A464C4720524B464C48DC
:1017800020524F464E48205250464E4720524C5A07
:101790004A5B20524C594B5B20524E594F5B2052B2
:1017A0004E5A505B003337475C58495946594C589C
:1017B000495647544651464E474C494B4B4A4E4A70
:1017C000534B564C584E5A515B545B565A585859C5
:1017D0005620524D494C4B4B4E4B534C564D582076
:1017E0005251464F474D4A4C4E4C534D574F5A510C
:1017F0005B003632475D4C464C5B20524D474D5A9C
:1018000020524E464E5B2052494653465647584951
:10181000594B5A4E5A5359565858565A535B495B6E
:1018200020525749584B594E5953585657582052E1
:1018300053465547574A584E58535757555A535B76
:1018400020524A464C4720524B464C4820524F4665
:101850004E48205250464E4720524C5A4A5B205226
:101860004C594B5B20524E594F5B20524E5A505BA5
:10187000003833475C4C464C5B20524D474D5A2054
:10188000524E464E5B205249465946594C20524EC4
:101890005054502052544C54542052495B595B5977
:1018A0005520524A464C4720524B464C4820524FF6
:1018B000464E48205250464E4720525446594720E3
:1018C000525646594820525746594920525846596F
:1018D0004C2052544C535054542052544E52505455
:1018E000522052544F5050545120524C5A4A5B206F
:1018F000524C594B5B20524E594F5B20524E5A501E
:101900005B2052545B595A2052565B59592052570A
:101910005B59582052585B5955003730475B4C464D
:101920004C5B20524D474D5A20524E464E5B205242
:1019300049465946594C20524E5054502052544C0E
:1019400054542052495B515B20524A464C47205226
:101950004B464C4820524F464E48205250464E4728
:10196000205254465947205256465948205257460D
:10197000594920525846594C2052544C53505454B3
:101980002052544E525054522052544F50505451A1
:1019900020524C5A4A5B20524C594B5B20524E59B4
:1019A0004F5B20524E5A505B003630475E584959C3
:1019B00046594C58495647544651464E474C494B58
:1019C0004B4A4E4A534B564C584E5A515B545B56F9
:1019D0005A585A595B595320524D494C4B4B4E4B18
:1019E000534C564D58205251464F474D4A4C4E4C41
:1019F000534D574F5A515B20525854585920525703
:101A0000535759565A205254535C532052555357EA
:101A10005420525653575520525A53595520525B11
:101A2000535954003831465E4B464B5B20524C476D
:101A30004C5A20524D464D5B20525746575B205220
:101A40005847585A20525946595B205248465046EA
:101A5000205254465C4620524D5057502052485B0D
:101A6000505B2052545B5C5B205249464B472052EE
:101A70004A464B4820524E464D4820524F464D470D
:101A800020525546574720525646574820525A46EC
:101A9000594820525B46594720524B5A495B2052C5
:101AA0004B594A5B20524D594E5B20524D5A4F5B69
:101AB0002052575A555B20525759565B205259595C
:101AC0005A5B2052595A5B5B0033394C585146518E
:101AD0005B20525247525A20525346535B20524E7B
:101AE00046564620524E5B565B20524F4651472089
:101AF000525046514820525446534820525546535E
:101B0000472052515A4F5B20525159505B2052533B
:101B100059545B2052535A555B0034354A4A534658
:101B20005357525A515B205254475457535A2052DC
:101B300055465557545A515B4F5B4D5A4C584C566D
:101B40004D554E554F564F574E584D5820524D56A5
:101B50004D574E574E564D562052504658462052DD
:101B600051465347205252465348205256465548F4
:101B7000205257465547003639465C4B464B5B2052
:101B8000524C474C5A20524D464D5B205258474DBF
:101B90005220525050575B20525150585B205251A6
:101BA0004E595B205248465046205255465B4620CF
:101BB00052485B505B2052545B5B5B205249464B62
:101BC0004720524A464B4820524E464D4820524FDD
:101BD000464D4720525746584720525A46584720AC
:101BE000524B5A495B20524B594A5B20524D594E39
:101BF0005B20524D5A4F5B20525759555B2052572C
:101C0000595A5B003532495B4E464E5B20524F4776
:101C10004F5A20525046505B20524B46534620525A
:101C20004B5B5A5B5A5520524C464E4720524D460C
:101C30004E4820525146504820525246504720525A
:101C40004E5A4C5B20524E594D5B20525059515BBD
:101C50002052505A525B2052555B5A5A2052575BC1
:101C60005A592052585B5A582052595B5A550036DF
:101C700033455F4A464A5A20524A46515B20524BEE
:101C800046515820524C46525820525846515B20DB
:101C9000525846585B20525947595A20525A465A70
:101CA0005B205247464C46205258465D46205247DC
:101CB0005B4D5B2052555B5D5B205248464A472096
:101CC000525B465A4820525C465A4720524A5A486C
:101CD0005B20524A5A4C5B2052585A565B2052584D
:101CE00059575B20525A595B5B20525A5A5C5B0031
:101CF0003339465E4B464B5A20524B46595B205275
:101D00004C46585820524D46595820525947595B15
:101D1000205248464D46205256465C462052485B6B
:101D20004E5B205249464B47205257465947205256
:101D30005B46594720524B5A495B20524B5A4D5BE8
:101D4000003534475D51464E474C494B4B4A4F4A4C
:101D5000524B564C584E5A515B535B565A58585931
:101D6000565A525A4F594B58495647534651462096
:101D7000524D494C4B4B4E4B534C564D582052579D
:101D80005858565953594E584B5749205251464F5F
:101D9000474D4A4C4E4C534D574F5A515B2052536E
:101DA0005B555A57575853584E574A554753460054
:101DB0003539475D4C464C5B20524D474D5A2052B9
:101DC0004E464E5B205249465546584759485A4A56
:101DD0005A4D594F585055514E5120525848594A12
:101DE000594D584F2052554657475849584E57500D
:101DF00055512052495B515B20524A464C47205274
:101E00004B464C4820524F464E48205250464E4773
:101E100020524C5A4A5B20524C594B5B20524E592F
:101E20004F5B20524E5A505B003737475D51464E4C
:101E3000474C494B4B4A4F4A524B564C584E5A51BD
:101E40005B535B565A585859565A525A4F594B5829
:101E50004956475346514620524D494C4B4B4E4BE9
:101E6000534C564D582052575858565953594E585E
:101E70004B5749205251464F474D4A4C4E4C534DBB
:101E8000574F5A515B2052535B555A575758535826
:101E90004E574A5547534620524E584F5651555269
:101EA0005554565558565E576059605A5E5A5C20D4
:101EB00052565C575E585F595F20525558575D58CF
:101EC0005E595E5A5D003830475D4C464C5B20528F
:101ED0004D474D5A20524E464E5B2052494655467C
:101EE000584759485A4A5A4C594E584F55504E50D7
:101EF00020525848594A594C584E20525546574737
:101F00005849584D574F55502052525054515553DF
:101F10005759585B5A5B5B595B5720525757585972
:101F2000595A5A5A205254515552585859595A5977
:101F30005B582052495B515B20524A464C47205225
:101F40004B464C4820524F464E48205250464E4732
:101F500020524C5A4A5B20524C594B5B20524E59EE
:101F60004F5B20524E5A505B003434485C584959FC
:101F700046594C58495647534650464D474B494B96
:101F80004C4C4E4F505552575358555858575A204D
:101F9000524C4C4D4E4F4F55515752585420524D64
:101FA000474C494C4B4D4D4F4E5550585259545932
:101FB000575859575A545B515B4E5A4C584B554BD6
:101FC0005B4C58003537485C4A464A4C20525146D3
:101FD000515B20525247525A20525346535B205273
:101FE0005A465A4C20524A465A4620524E5B565B3D
:101FF00020524B464A4C20524C464A4920524D46AC
:102000004A4820524F464A47205255465A47205286
:1020100057465A48205258465A49205259465A4C17
:102020002052515A4F5B20525159505B2052535904
:10203000545B2052535A555B003435465E4B464B39
:10204000554C584E5A515B535B565A58585955592E
:102050004720524C474C564D5820524D464D564EF7
:10206000594F5A515B205248465046205256465CC2
:1020700046205249464B4720524A464B4820524E32
:10208000464D4820524F464D47205257465947200B
:10209000525B465947003334485C4B46525B2052F2
:1020A0004C465258525B20524D4653582052594785
:1020B000525B205249465046205255465B462052BC
:1020C0004A464C4820524E464D4820524F464D47B6
:1020D00020525746594720525A46594700353546EF
:1020E0005E4A464E5B20524B464E564E5B20524C4B
:1020F000464F56205252464F564E5B20525246563D
:102100005B205253465656565B2052544657562033
:10211000525A475756565B205247464F4620525216
:10212000465446205257465D46205248464B47206B
:102130005249464B4820524D464C4820524E464C40
:1021400047205258465A4720525C465A4700353479
:10215000485C4B46575B20524C46585B20524D46DC
:10216000595B205258474C5A2052494650462052FB
:1021700055465B462052495B4F5B2052545B5B5B8C
:1021800020524A464D4820524E464D4820524F4616
:102190004D4720525646584720525A4658472052DB
:1021A0004C5A4A5B20524C5A4E5B2052575A555B50
:1021B00020525759565B205257595A5B00343847C2
:1021C0005D4A465151515B20524B465251525A2062
:1021D000524C465351535B20525947535120524859
:1021E000464F46205256465C4620524E5B565B2078
:1021F0005249464B4720524E464C4720525746596B
:102200004720525B4659472052515A4F5B2052514A
:1022100059505B20525359545B2052535A555B001E
:102220003431485C59464B464B4C205257464B5B29
:10223000205258464C5B205259464D5B20524B5B16
:10224000595B595520524C464B4C20524D464B49F8
:1022500020524E464B48205250464B472052545B2A
:10226000595A2052565B59592052575B595820529F
:10227000585B59550031324B594F424F62205250F2
:1022800042506220524F42564220524F62566200E4
:1022900020334B594B46595E0031324B595442540E
:1022A0006220525542556220524E42554220524EB3
:1022B0006255620031314A5A504C5249544C2052B6
:1022C0004D4F524A574F2052524A525B0020334AD8
:1022D0005A4A5D5A5D0032344D585446524751496E
:1022E000514C524D534D544C544B534A524A514BFE
:1022F0002052524B524C534C534B524B205252474C
:10230000514B20525149524A003534495D4E504E8E
:102310004F4F4F4F514D514D4F4E4E504D544D56C6
:102320004E574F58515858595A5A5B2052564F578A
:10233000515758585A2052544D554E56505658578A
:102340005A5A5B5B5B20525652555350544D554C74
:10235000574C584D5A505B535B555A565820524E65
:10236000554D574D584E5A2052555351544F554E76
:10237000574E584F5A505B003437475C4C464C5BC5
:102380004D5A4F5A20524D474D59205249464E46BC
:102390004E5A20524E504F4E514D534D564E58505E
:1023A000595359555858565A535B515B4F5A4E58CA
:1023B000205257505852585657582052534D554E48
:1023C000564F575257565659555A535B20524A4604
:1023D0004C4720524B464C48003334485B575157CA
:1023E000505650565258525850564E544D514D4ECC
:1023F0004E4C504B534B554C584E5A515B535B56B9
:102400005A585820524D504C524C564D582052510B
:102410004D4F4E4E4F4D524D564E594F5A515B00F7
:102420003532485D5646565B5B5B20525747575ADC
:10243000205253465846585B20525650554E534DE5
:10244000514D4E4E4C504B534B554C584E5A515B80
:10245000535B555A565820524D504C524C564D587D
:102460002052514D4F4E4E4F4D524D564E594F5A90
:10247000515B2052544656472052554656482052EA
:102480005859595B2052585A5A5B003431485B4DB9
:102490005358535851574F564E534D514D4E4E4C25
:1024A000504B534B554C584E5A515B535B565A58F0
:1024B00058205257525751564F20524D504C524C63
:1024C000564D58205256535650554E534D2052514A
:1024D0004D4F4E4E4F4D524D564E594F5A515B0037
:1024E00034304B595748574756475649584958472B
:1024F0005746544652475148504B505B2052524821
:10250000514B515A2052544653475249525B205224
:102510004D4D564D20524D5B555B2052505A4E5BEF
:10252000205250594F5B20525259535B2052525AFD
:10253000545B003839495C584E594F5A4E594D58E2
:102540004D564E554F2052514D4F4E4E4F4D514DC1
:10255000534E554F56515753575556565557535737
:1025600051564F554E534D514D20524F4F4E514E97
:10257000534F552052555556535651554F20525191
:102580004D504E4F504F5450565157205253575460
:102590005655545550544E534D20524E554D564C51
:1025A000584C594D5B4E5C515D555D585E595F20EE
:1025B000524E5B515C555C585D20524C594D5A50FF
:1025C0005B555B585C595E595F586155624F624C70
:1025D000614B5F4B5E4C5C4F5B20524F624D614CD8
:1025E0005F4C5E4D5C4F5B003635475E4C464C5B46
:1025F00020524D474D5A205249464E464E5B20527E
:102600004E514F4F504E524D554D574E584F5952B7
:10261000595B2052574F5852585A2052554D564EDA
:102620005751575B2052495B515B2052545B5C5BB6
:1026300020524A464C4720524B464C4820524C5A56
:102640004A5B20524C594B5B20524E594F5B2052F3
:102650004E5A505B2052575A555B20525759565B81
:10266000205259595A5B2052595A5B5B0034334C03
:1026700058514651485348534651462052524652AB
:10268000482052514753472052514D515B205252DE
:102690004E525A20524E4D534D535B20524E5B5674
:1026A0005B20524F4D514E2052504D514F205251B0
:1026B0005A4F5B20525159505B20525359545B2062
:1026C00052535A555B0034314B5852465248544885
:1026D000544652462052534653482052524754477C
:1026E0002052524D525E516150622052534E535D02
:1026F000526020524F4D544D545D536052615062B0
:102700004D624C614C5F4E5F4E614D614D60205299
:10271000504D524E2052514D524F003631475D4C74
:10272000464C5B20524D474D5A205249464E464E2C
:102730005B2052574E4E5720525253595B205252F3
:1027400054585B20525154575B2052544D5B4D20DE
:1027500052495B515B2052545B5B5B20524A464CB2
:102760004720524B464C482052554D574E20525A06
:102770004D574E20524C5A4A5B20524C594B5B20CD
:10278000524E594F5B20524E5A505B20525759556A
:102790005B205256595A5B0033314C585146515BBD
:1027A00020525247525A20524E465346535B2052B3
:1027B0004E5B565B20524F4651472052504651487F
:1027C0002052515A4F5B20525159505B205253595D
:1027D000545B2052535A555B0039394163464D468C
:1027E0005B2052474E475A2052434D484D485B208C
:1027F000524851494F4A4E4C4D4F4D514E524F53F6
:1028000052535B2052514F5252525A20524F4D5008
:102810004E5151515B20525351544F554E574D5AC2
:102820004D5C4E5D4F5E525E5B20525C4F5D525D73
:102830005A20525A4D5B4E5C515C5B2052435B4BBD
:102840005B20524E5B565B2052595B615B205244C9
:102850004D464E2052454D464F2052465A445B202D
:10286000524659455B20524859495B2052485A4AC2
:102870005B2052515A4F5B20525159505B205253AA
:1028800059545B2052535A555B20525C5A5A5B2074
:10289000525C595B5B20525E595F5B20525E5A600E
:1028A0005B003635475E4C4D4C5B20524D4E4D5AC9
:1028B0002052494D4E4D4E5B20524E514F4F504E7F
:1028C000524D554D574E584F5952595B2052574F04
:1028D0005852585A2052554D564E5751575B205218
:1028E000495B515B2052545B5C5B20524A4D4C4E1D
:1028F00020524B4D4C4F20524C5A4A5B20524C595F
:102900004B5B20524E594F5B20524E5A505B205227
:10291000575A555B20525759565B205259595A5BAA
:102920002052595A5B5B003436485C514D4E4E4C38
:10293000504B534B554C584E5A515B535B565A585B
:1029400058595559535850564E534D514D20524D8C
:10295000504C524C564D5820525758585658525772
:10296000502052514D4F4E4E4F4D524D564E594F95
:102970005A515B2052535B555A5659575657525627
:102980004F554E534D003630475C4C4D4C622052F3
:102990004D4E4D612052494D4E4D4E6220524E508B
:1029A0004F4E514D534D564E5850595359555858F6
:1029B000565A535B515B4F5A4E58205257505852FB
:1029C000585657582052534D554E564F57525756FA
:1029D0005659555A535B20524962516220524A4D12
:1029E0004C4E20524B4D4C4F20524C614A6220526B
:1029F0004C604B6220524E604F6220524E615062DA
:102A0000003535485C564E56622052574F5761206C
:102A100052554E574E584D586220525650554E53AF
:102A20004D514D4E4E4C504B534B554C584E5A51A8
:102A30005B535B555A565820524D504C524C564D94
:102A4000582052514D4F4E4E4F4D524D564E594FAC
:102A50005A515B205253625B62205256615462208D
:102A60005256605562205258605962205258615A3D
:102A700062003433495A4E4D4E5B20524F4E4F5AEE
:102A800020524B4D504D505B2052574F574E564E93
:102A900056505850584E574D554D534E5150505317
:102AA00020524B5B535B20524C4D4E4E20524D4DAD
:102AB0004E4F20524E5A4C5B20524E594D5B205285
:102AC0005059515B2052505A525B0034334A5B5785
:102AD0004F584D5851574F564E544D504D4E4E4DE8
:102AE0004F4D514E53505455555756585920524EEC
:102AF0004E4D5120524E5250535554575520525816
:102B000056575A20524D4F4E5150525553575458C4
:102B1000565859575A555B515B4F5A4E594D574D60
:102B20005B4E590032324B5A504850565159525A06
:102B3000545B565B585A5958205251485157525974
:102B40002052504852465257535A545B20524D4DD2
:102B5000564D003433475E4C4D4C564D594E5A50ED
:102B60005B535B555A5659575720524D4E4D574E51
:102B7000592052494D4E4D4E574F5A505B20525797
:102B80004D575B5C5B2052584E585A2052544D5959
:102B90004D595B20524A4D4C4E20524B4D4C4F20CC
:102BA0005259595A5B2052595A5B5B003331495B89
:102BB0004C4D525B20524D4D525920524E4D53595F
:102BC0002052584E5359525B20524A4D514D20527B
:102BD000544D5A4D20524B4D4E4F2052504D4E4E5B
:102BE0002052564D584E2052594D584E00343546BD
:102BF0005E4A4D4E5B20524B4D4E5820524C4D4F2D
:102C0000582052524D4F584E5B2052524D565B2029
:102C100052534D56582052524D544D575820525AE7
:102C20004E5758565B2052474D4F4D2052574D5DE1
:102C30004D2052484D4B4E20524E4D4C4E20525836
:102C40004D5A4E20525C4D5A4E003438485C4C4D23
:102C5000565B20524D4D575B20524E4D585B2052D3
:102C6000574E4D5A20524A4D514D2052544D5A4DB7
:102C700020524A5B505B2052535B5A5B20524B4DB3
:102C80004D4E2052504D4E4E2052554D574E2052D3
:102C9000594D574E20524D5A4B5B20524D5A4F5B67
:102CA0002052565A545B2052575A595B00343048D0
:102CB0005B4C4D525B20524D4D525920524E4D535C
:102CC000592052584E5359505F4E614C624A6249E6
:102CD00061495F4B5F4B614A614A6020524A4D51E6
:102CE0004D2052544D5A4D20524B4D4E4F20525074
:102CF0004D4E4E2052564D584E2052594D584E0072
:102D00003431495B564D4C5B2052574D4D5B205240
:102D1000584D4E5B2052584D4C4D4C5120524C5BFF
:102D2000585B585720524D4D4C5120524E4D4C50EF
:102D300020524F4D4C4F2052514D4C4E2052535B20
:102D4000585A2052555B58592052565B58582052B9
:102D5000575B58570034304B5954425243514450FA
:102D6000465048514A524B534D534F5151205252A5
:102D700043514551475249534A544C544E53504F76
:102D800052535454565458535A525B515D515F52EA
:102D90006120525153535553575259515A505C5018
:102DA0005E5160526154620020334E56524252626C
:102DB0000034304B595042524353445446544853C4
:102DC0004A524B514D514F53512052524353455348
:102DD000475249514A504C504E51505552515450FF
:102DE000565058515A525B535D535F5261205253B3
:102DF00053515551575259535A545C545E53605273
:102E0000615062003234465E495549534A504C4F36
:102E10004E4F50505453565458545A535B512052AD
:102E200049534A514C504E50505154545655585590
:102E30005A545B515B4F0033304B5951464F474E0C
:102E4000494E4B4F4D514E534E554D564B5649558D
:102E50004753465146205251464E494F4D534E56C8
:102E60004B55475146205253464F474E4B514E55B6
:102E70004D56495346000B0D1A0D1F0D660D950D4D
:102E8000B00D230E660EFD0E300F690FA20FF30F6B
:102E9000161049105C107F109210F9103411B31104
:102EA0004E128912FA128713E01381140E15511570
:102EB000A415AF15D215DD154816BB160617A517B4
:102EC000F21771181A19A919241AC91A1A1B771B93
:102ED000041C6F1CF01C411DB01D291EC61E691F5D
:102EE000C41F39209620DD204E21BD2120227522CD
:102EF00090229922B422CD22D62209237823D923E5
:102F000020248B24E0243325E8256D26C6261B27A4
:102F10009827D927A22827298629012A722ACB2A6D
:102F2000242B532BAC2BED2B4A2CAD2C002D552DE7
:102F3000A82DB12D042E372E77125D5B3A6B6F52A0
:102F40007F7B7E2F651F6D6C08C0FFFFFFFF00F0C9
:102F5000FFFFFFFF03F0FFFFFFFF03F0FFFFFFFF97
:102F600003FCFFFFFFFF1FFCFFFFFFFF1FFCFFFF36
:102F7000FFFF1FFFFFFFFFFF3FFFFFFFFFFF3FFFC1
:102F8000FFFFFFFF3FFF070000F03FFF070000F0DB
:102F90003FFF070000F03FFF070000F03FFF070082
:102FA00000F03FFF070000F03FFF070000F03FFF89
:102FB000070000F03FFF070000F03FFF070000F0B0
:102FC0003FFF070000F03FFF070000F03FFF070052
:102FD00000F03FFF070000F03FFF070000F03FFF59
:102FE000070000F03FFF070000F03FFF070000F080
:102FF0003FFF070000F03FFF070000F03FFF070022
:1030000000F03FFF070000F03FFF070000F03FFF28
:10301000070000F03FFF070000F03FFF070000F04F
:103020003FFF070000F03FFF070000F03FFF0700F1
:1030300000F03FFF070000F03FFF070000F03FFFF8
:10304000070000F03FFF070000F03FFF070000F01F
:103050003FFF070000F03FFF070000F03FFF0700C1
:1030600000F03FFF070000F03FFF070000F03FFFC8
:10307000070000F03FFF070000F03FFF070000F0EF
:103080003FFF070000F03FFF070000F03FFF070091
:1030900000F03FFF070000F03FFF070000F03FFF98
:1030A000070000F03FFF070000F03FFF070000F0BF
:1030B0003FFF070000F03FFF070000F03FFF070061
:1030C00000F03FFF070000F03FFF070000F03FFF68
:1030D000070000F03FFF070000F03FFF070000F08F
:1030E0003FFF070000F03FFF070000F03FFF070031
:1030F00000F03FFF070000F03FFFFFFFFFFF3FFF33
:10310000FFFFFFFF3FFFFFFFFFFF3FFCFFFFFFFF52
:103110001FFCFFFFFFFF1FFCFFFFFFFF1FF0FFFF74
:10312000FFFF03F0FFFFFFFF03F0FFFFFFFF03C000
:10313000FFFFFFFF00F8FFFF0F0000F8FFFF0F0089
:1031400000FFFFFF0F0000FFFFFF0F0000FFFFFF6A
:103150000F0000FFFFFF0F0000FFFFFF0F0000FF49
:10316000FFFF0F0000FFFFFF0F0000FFFFFF0F003A
:1031700000F8FFFF0F00000000FC0F00000000FC43
:103180000F00000000FC0F00000000FC0F0000001A
:1031900000FC0F00000000FC0F00000000FC0F000E
:1031A000000000FC0F00000000FC0F00000000FC0D
:1031B0000F00000000FC0F00000000FC0F000000EA
:1031C00000FC0F00000000FC0F00000000FC0F00DE
:1031D000000000FC0F00000000FC0F00000000FCDD
:1031E0000F00000000FC0F00000000FC0F000000BA
:1031F00000FC0F00000000FC0F00000000FC0F00AE
:10320000000000FC0F00000000FC0F00000000FCAC
:103210000F00000000FC0F00000000FC0F00000089
:1032200000FC0F00000000FC0F00000000FC0F007D
:10323000000000FC0F00000000FC0F00000000FC7C
:103240000F00000000FC0F800F0000FC0F800F003B
:1032500000FC0FC00F0000FC0FC00F0000FC0FE0CF
:103260001F0000FC0FE01F0000FC0FE01F0000FC2F
:103270000FE01F0000FC0FE01F0000FC0FE01F002C
:1032800000FC0FE01F0000FC0FE01F0000FC0FE03F
:103290001F0000FC0FE01F0000FC0FE01F0000FCFF
:1032A0000FE01F0000FC0FE01F0000FC0FE01F00FC
:1032B00000FC0FE01F0000FC0FE01F0000FC0FE00F
:1032C0001F0000FC0FE01F0000FC0FE01F0000FCCF
:1032D0000FE01F0000FC0FE01F0000FC0FE01F00CC
:1032E00000FC0FE01F0000FC0FE01F0000FC0FE0DF
:1032F0001FFFFFFFFFFF1FFFFFFFFFFF1FFFFFFF7E
:10330000FFFF1FFFFFFFFFFF1FFFFFFFFFFF1FFF6D
:10331000FFFFFFFF1FFFFFFFFFFF1FFFFFFFFFFF7D
:103320000FFCFFFFFF7F00FEFFFFFFFF03FEFFFF1D
:10333000FFFF03FFFFFFFFFF07FFFFFFFFFF07FF89
:10334000FFFFFFFF0FFFFFFFFFFF0FFFFFFFFFFF6D
:103350003FFEFFFFFFFF3FFEFFFFFFFF3FFCFFFFC2
:10336000FFFF3F00000000E03F00000000E03F00E2
:10337000000000E03F00000000E03F00000000E02F
:103380003F00000000E03F00000000E03F000000C0
:1033900000E03F00000000E03F00000000E03F00D0
:1033A000000000E03F00000000E03F00000000E0FF
:1033B0003F00000000E03F00000000E03F00000090
:1033C00000E03F00000000E03F00000000E03F00A0
:1033D000000000E03F00000000E03F00000000E0CF
:1033E0003F00000000E03F00000000E03F00000060
:1033F00000E03FE0FFFFFFFF3FE0FFFFFFFF3FE098
:10340000FFFFFFFF3FFCFFFFFFFF3FFCFFFFFFFF52
:103410003FFEFFFFFFFF0FFEFFFFFFFF0FFFFFFF5E
:10342000FFFF07FFFFFFFFFF03FFFFFFFFFF03FF9C
:10343000FFFFFFFF03FFFFFFFF7F00FF0300000010
:1034400000FF0300000000FF0300000000FF030076
:10345000000000FF0300000000FF0300000000FF69
:103460000300000000FF0300000000FF0300000055
:1034700000FF0300000000FF0300000000FF030046
:10348000000000FF0300000000FF0300000000FF39
:103490000300000000FF0300000000FF0300000025
:1034A00000FF0300000000FF0300000000FF030016
:1034B000000000FF0300000000FF0300000000FF09
:1034C0000300000000FF0300000000FFFFFFFFFFFC
:1034D00007FFFFFFFFFF07FFFFFFFFFF0FFFFFFFDC
:1034E000FFFF3FFFFFFFFFFF3FFFFFFFFFFF3FFF2C
:1034F000FFFFFFFF3FFFFFFFFFFF3FFFFFFFFFFF5C
:103500003FFFFFFFFFFF0FFFFFFFFFFF07FCFFFF76
:10351000FFFF01FEFFFFFFFF0FFEFFFFFFFF0FFF9B
:10352000FFFFFFFF1FFFFFFFFFFF3FFFFFFFFFFF4B
:103530003FFFFFFFFFFF3FFFFFFFFFFF3FFEFFFFDC
:10354000FFFF3FFEFFFFFFFF3FFCFFFFFFFF3F00CE
:10355000000000C03F00000000C03F00000000C0AD
:103560003F00000000C03F00000000C03F0000001E
:1035700000C03F00000000C03F00000000C03F004E
:10358000000000C03F00000000C03F00000000C07D
:103590003F00000000C03F00000000C03F000000EE
:1035A00000C03F00000000C03F00000000C03F001E
:1035B000000000C03F00000000C03F00000000C04D
:1035C0003F00000000C03F00000000C03F000000BE
:1035D00000C03F00000000E03F00000000F03F009E
:1035E000F8FFFFFF3F00F8FFFFFF3F00FCFFFFFF7A
:1035F0003F00FEFFFFFF1F00FEFFFFFF0F00FEFF6B
:10360000FFFF0F00FEFFFFFF0F00FEFFFFFF1F0089
:10361000FEFFFFFF1F00FCFFFFFF3F00F8FFFFFF63
:103620003F00000000F03F00000000F03F000000FD
:1036300000E03F00000000C03F00000000C03F006D
:10364000000000C03F00000000C03F00000000C0BC
:103650003F00000000C03F00000000C03F0000002D
:1036600000C03F00000000C03F00000000C03F005D
:10367000000000C03F00000000C03F00000000C08C
:103680003F00000000C03F00000000C03F000000FD
:1036900000C03F00000000C03F00000000C03F002D
:1036A000000000C03F00000000C03F00000000C05C
:1036B0003F00000000C03FFCFFFFFFFF3FFEFFFF99
:1036C000FFFF3FFFFFFFFFFF3FFFFFFFFFFF3FFF4A
:1036D000FFFFFFFF3FFFFFFFFFFF3FFFFFFFFFFF7A
:1036E0003FFFFFFFFFFF1FFEFFFFFFFF0FFCFFFF7E
:1036F000FFFF01FCFFFFFFFF01FC0000000000FCDA
:103700000000000000FE0100000000FF07000000B4
:1037100000FF0700000000FF0700000000FF070097
:10372000000000FF0700000000FF0700000000FF8E
:103730000700000000FF0700001F00FF0700807F58
:1037400000FF0700807F00FF0700C0FF01FF0700A8
:10375000C0FF01FF0700C0FF01FF0700C0FF01FF1E
:103760000700C0FF01FF0700C0FF01FF0700C0FF07
:1037700001FF0700C0FF01FF0700C0FF01FF0700B6
:10378000C0FF01FF0700C0FF01FF0700C0FF01FFEE
:103790000700C0FF01FF0700C0FF01FF0700C0FFD7
:1037A00001FF0700C0FF01FF0700C0FF01FF070086
:1037B000C0FF01FF0700C0FF01FF0700C0FF01FFBE
:1037C0000700C0FF01FF0700C0FF01FF0700C0FFA7
:1037D00001FF0700C0FF01FF0700C0FF01FF070056
:1037E000C0FF01FF0700C0FF01FF0700C0FF01FF8E
:1037F0000700C0FF01FF0700C0FF01FF0700C0FF77
:1038000001FF0700C0FF01FFFFFFFFFF07FFFFFFF2
:10381000FFFF0FFFFFFFFFFF0FFFFFFFFFFF3FFF58
:10382000FFFFFFFF3FFFFFFFFFFF3FFFFFFFFFFF28
:103830003FFFFFFFFFFF3FFFFFFFFFFF0FFFFFFF08
:10384000FFFF0FFFFFFFFFFF07000000C0FF0100A9
:103850000000C0FF01000000C0FF01000000C0FF29
:1038600001000000C0FF01000000C0FF01000000D7
:10387000C0FF01000000C0FF01000000C0FF010008
:103880000000C0FF01000000C0FF01000000C0FFF9
:1038900001000000C0FF01000000C0FF01000000A7
:1038A000C0FF01000000C0FF01000000C0FF0100D8
:1038B0000000C0FF01000000C0FF01000000C0FFC9
:1038C00001000000C0FF01000000C0FF0100000077
:1038D000C0FF01000000807F00000000001F00000A
:1038E0000000001F0000FEFFFFFF0700FEFFFFFFBC
:1038F0000F00FEFFFFFF0F00FEFFFFFF3F00FEFF78
:10390000FFFF3F00FEFFFFFF3F00FEFFFFFF3F0006
:10391000FEFFFFFF3F00FEFFFFFF0F00FEFFFFFF68
:103920000700FEFFFFFF0700FE0300000000FE038C
:1039300000000000FE0300000000FE030000000085
:10394000FE0300000000FE0300000000FE03000074
:103950000000FE0300000000FE0300000000FE0364
:1039600000000000FE0300000000FE030000000055
:10397000FE0300000000FE0300000000FE03000044
:103980000000FE0300000000FE0300000000FE0334
:1039900000000000FE0300000000FE030000000025
:1039A000FE0300000000FE0300000000FE03000014
:1039B0000000FE0300000000FEFFFF3F0000FEFFCE
:1039C000FFFF0100FEFFFFFF0100FEFFFFFF0700FA
:1039D000FEFFFFFF0F00FEFFFFFF0F00FEFFFFFFD8
:1039E0000F00FEFFFFFF3F00FEFFFFFF3F00FEFF57
:1039F000FFFF3F00FEFFFFFF3F00000000F83F0019
:103A0000000000F83F00000000F83F00000000F850
:103A10003F00000000F83F00000000F83F000000F9
:103A200000F83F00000000F83F00000000F83F00F1
:103A3000000000F83F00000000F83F00000000F820
:103A40003F00000000F83F00000000F83F000000C9
:103A500000F83F00000000F83F00000000F83F00C1
:103A6000000000F83F00000000F83F00000000F8F0
:103A70003F7E000000F83FFF010000F83FFF01001B
:103A800000F83FFF0F0000F83FFFFFFFFFFF3FFF81
:103A9000FFFFFFFF3FFFFFFFFFFF3FFFFFFFFFFFB6
:103AA0003FFFFFFFFFFF0FFEFFFFFFFF0FFEFFFFC8
:103AB000FFFF0FF0FFFFFFFF0700FFFFFFFF010009
:103AC000F8FFFF3F0000F8FFFF3F0000F8FFFF3F57
:103AD00000FC1F00000000FE1F00000000FE1F0091
:103AE000000000FF7F00000000FF7F00000000FFDB
:103AF0007F00000000FF7F00000000FF7F0000004B
:103B000000FF1F00000000FF1F00000000FF1F005B
:103B1000000000FF0300000000FF0300000000FFA2
:103B20000300000000FF0300000000FF030000008E
:103B300000FF0300000000FF0300000000FF03007F
:103B4000000000FF0300000000FF0300000000FF72
:103B50000300000000FF0300000000FF030000005E
:103B600000FF0300000000FF0300000000FF03004F
:103B7000000000FF0300000000FF0300000000FF42
:103B80000300000000FF0300000000FF030000002E
:103B900000FF0300000000FF0300000000FF03001F
:103BA000000000FF0300000000FF0300000000FF12
:103BB0000300000000FF0300000000FF03000000FE
:103BC00000FF0300000000FF0300000000FF0300EF
:103BD000000000FF0300000000FF0300000000FFE2
:103BE000FFFFFFFF0FFFFFFFFFFF1FFFFFFFFFFFB5
:103BF0001FFFFFFFFFFF3FFFFFFFFFFF3FFFFFFF35
:103C0000FFFF3FFFFFFFFFFF3FFFFFFFFFFF3FFF04
:103C1000FFFFFFFF3FFFFFFFFFFF3FFFFFFFFFFF34
:103C20003FFF030000F03FFF030000F03FFF0300F1
:103C300000F03FFF030000F03FFF030000F03FFFF4
:103C4000030000F03FFF030000F03FFF030000F01F
:103C50003FFF030000F03FFF030000F03FFF0300C1
:103C600000F03FFF030000F03FFF030000F03FFFC4
:103C7000030000F03FFF030000F03FFFFFFFFFFFE6
:103C80003FFFFFFFFFFF3FFFFFFFFFFF3FFFFFFF84
:103C9000FFFF3FFFFFFFFFFF3FFFFFFFFFFF3FFF74
:103CA000FFFFFFFF3FFFFFFFFFFF3FFEFFFFFFFFA5
:103CB0001FFEFFFFFFFF1FFCFFFFFFFF0FFEFFFFC9
:103CC000FFFF3FFFFFFFFFFF3FFFFFFFFFFF3FFF44
:103CD000FFFFFFFF3FFFFFFFFFFF3FFFFFFFFFFF74
:103CE0003FFFFFFFFFFF3FFFFFFFFFFF3FFFFFFF24
:103CF000FFFF3FFFFFFFFFFF3FFFFFFFFFFF3FFF14
:103D0000010000F03F7F000000F03F7F000000F066
:103D10003F7E000000F03F00000000F03F00000088
:103D200000F03F00000000F03F00000000F03F0006
:103D3000000000F03F00000000F03F00000000F035
:103D40003F00000000F03F00000000F03F000000D6
:103D500000F03F00000000F03F00000000F03F00D6
:103D6000000000F03F00000000F03F00000000F005
:103D70003F00000000FC3F00000000FC3F0000008E
:103D800000FC3F00000000FF3F00000080FF1F001C
:103D9000000080FF1F000000E0FF07000000F0FFB0
:103DA00003000000F0FF03000000F8FF0100000026
:103DB000FE7F00000080FF7F00000080FF7F00008A
:103DC00000C0FF0F000000E0FF0F000000F0FF0345
:103DD000000000F0FF03000000F8FF00000000FCFE
:103DE0007F00000000FC7F00000000FC1F000000BE
:103DF00000FC0F00000000FC0700000000FC0700B2
:103E0000000000FC0700000000FC0700000000FCB0
:103E10000700000000FC0700000000FC0700000095
:103E200000FC0700000000FC0700000000FC070089
:103E3000000000FC0700000000FC0700000000FC80
:103E40000700000000FC0700000000FC0700000065
:103E500000FC0700000000FC0700000000FC070059
:103E6000000000FC0700000000FC0700000000FC50
:103E70000700000000FC0700000000FC0700000035
:103E800000FC0700000000FC0700000000FC070029
:103E9000000000FC0700000000FC0700000000F824
:103EA0000300000000F001000000F0FFFF0300002D
:103EB000F8FFFF070000F8FFFF070000FCFFFF0FFF
:103EC0000000FCFFFF0F0000FCFFFF0F0000FCFFE5
:103ED000FF0F0000FCFFFF0F0000FCFFFF0F0000C2
:103EE000FCFFFF0F0000FCFFFF0F0000FC0FFC0FAA
:103EF0000000FC0FFC0F0000FC0FFC0F0000FC0F8B
:103F0000FC0F0000FC0FFC0F0000FC0FFC0F00007A
:103F1000FC0FFC0F0000FC0FFC0F0000FC0FFC0F5F
:103F20000000FC0FFC0F0000FC0FFC0F0000FC0F5A
:103F3000FC0F0000FC0FFC0F0000FC0FFC0F00004A
:103F4000FC0FFC0F0000FC0FFC0F0000FC0FFC0F2F
:103F50000000FC0FFC0F0000FC0FFC0F0000FC0F2A
:103F6000FC0F0000FC0FFC0F0000FC0FFC0F00001A
:103F7000FC0FFC0F0000FC0FFC0F0000FC0FFC0FFF
:103F800000E0FFFFFFFF01F8FFFFFFFF07FCFFFF5F
:103F9000FFFF0FFCFFFFFFFF0FFEFFFFFFFF1FFEF6
:103FA000FFFFFFFF1FFFFFFFFFFF3FFFFFFFFFFFC1
:103FB0003FFFFFFFFFFF3FFFFFFFFFFF3FFF03004C
:103FC00000F03FFF030000F03FFF030000F03FFF61
:103FD000030000F03FFF030000F03FFF030000F08C
:103FE0003FFF030000F03FFF030000F03FFF03002E
:103FF00000F03FFF030000F03FFF030000F03FFF31
:10400000030000F03FFF030000F03FFF030000F05B
:104010003FFF030000F03FFF030000F03FFF0300FD
:1040200000F03FFF030000F03FFF030000F03FFF00
:10403000030000F03FFF030000F03FFF030000F02B
:104040003FFF030000F03FFF030000F03FFF0300CD
:1040500000F03FFFFFFFFFFF3FFFFFFFFFFF3FFFBE
:10406000FFFFFFFF3FFFFFFFFFFF3FFEFFFFFFFFE1
:104070001FFEFFFFFFFF1FFEFFFFFFFF1FFCFFFFF5
:10408000FFFF0FF8FFFFFFFF07F8FFFFFFFF07E04D
:10409000FFFFFFFF01FCFFFFFFFF1FFEFFFFFFFF12
:1040A0001FFEFFFFFFFF1FFFFFFFFFFF3FFFFFFFA1
:1040B000FFFF3FFFFFFFFFFF3FFFFFFFFFFF3FFF50
:1040C000FFFFFFFF3FFFFFFFFFFF3FFFFFFFFFFF80
:1040D0003FFFFFFFFFFF3FFF030000E03FFF030044
:1040E00000E03FFF030000E03FFF030000E03FFF70
:1040F000030000E03FFF030000E03FFF030000E09B
:104100003FFF030000E03FFF030000E03FFF03002C
:1041100000E03FFF030000E03FFF030000E03FFF3F
:10412000030000E03FFF030000E03FFF030000E06A
:104130003FFFFFFFFFFF3FFFFFFFFFFF3FFFFFFFCF
:10414000FFFF3FFFFFFFFFFF3FFFFFFFFFFF3FFFBF
:10415000FFFFFFFF3FFFFFFFFFFF3FFFFFFFFFFFEF
:104160003FFEFFFFFFFF3FFEFFFFFFFF3FFCFFFFA4
:10417000FFFF3F00000000E03F00000000E03F00C4
:10418000000000E03F00000000E03F00000000E011
:104190003F00000000E03F00000000E03F000000A2
:1041A00000E03F00000000E03F00000000E03F00B2
:1041B000000000E03F00000000E03F00000000E0E1
:1041C0003F00000000E03F00000000E03F00000072
:1041D00000E03F00000000E03F00000000E03F0082
:1041E000000000E03F00000000E03F00000000E0B1
:1041F0003F00000000E03F00000000E03F00000042
:1042000000E03F00000000E03F00000000E03F0051
:10421000000000E03F00000000E03F00000000E080
:104220003F00000000E03F00000000E03F00000011
:1042300000E03F00000000E03F00000000E03F0021
:10424000000000FC3F00000000FE3F00000000FEF8
:104250003F00000000FF3F00000000FF3F000000A3
:1042600000FF3F00000000FF3F00000000FF3F0094
:10427000000000FE1F00000000FE1F00000000FC08
:104280001F0000000000000000000000000000000F
:10429000000000000000000000000000000000001E
:1042A000000000000000000000000000000000000E
:1042B00000000000000000000000000000000000FE
:1042C00000000000000000000000000000000000EE
:1042D00000000000000000000000000000000000DE
:1042E00000000000000000000000000000000000CE
:1042F00000000000000000000000000000000000BE
:1043000000000000000000000000000000000000AD
:10431000000000000000000000000000000000009D
:10432000000000000000000000000000000000008D
:10433000000000000000000000000000000000007D
:10434000000000000000000000000000000000006D
:10435000000000000000000000000000000000005D
:10436000000000000000000000000000000000004D
:10437000000000000000000000000000000000003D
:10438000000000000000000000000000000000002D
:10439000000000000000000000000000000000001D
:1043A000000000000000000000000000000000000D
:1043B00000000000000000000000000000000000FD
:1043C00000000000000000000000000000000000ED
:1043D00000000000000000000000000000000000DD
:1043E00000000000000000000000000000000000CD
:1043F0000000FCFF00000000FCFF00000000FEFFCA
:1044000001000080FFFF03000080FFFF0300008029
:10441000FFFF03000080FFFF03000080FFFF030099
:104420000080FFFF03000080FFFF03000080FFFF0C
:1044300003000080FFFF03000080FFFF03000080F7
:10444000FFFF03000080FFFF03000000FEFF0100EC
:104450000000FEFF01000000FCFF00000000000063
:10446000000000000000000000000000000000004C
:10447000000000000000000000000000000000003C
:10448000000000000000000000000000000000002C
:10449000000000000000000000000000000000001C
:1047300000000000000000000000000000F0FFFF8B
:10474000FFFF01F0FFFFFFFF01FCFFFFFFFF1FFC6A
:10475000FFFFFFFF1FFCFFFFFFFF1FFCFFFFFFFF2F
:104760001FFCFFFFFFFF1FFCFFFFFFFF1FFCFFFF02
:10477000FFFF1FFCFFFFFFFF1FF8FFFFFFFF07F01A
:10478000FFFFFFFF0100000000000000000000002C
:104790000000000000000000000000000000000019
:1047A0000000000000000000000000000000000009
:1047B00000000000000000000000000000000000F9
:1047C00000000000000000000000000000000000E9
:1047D00000000000000000000000000000000000D9
:1047E00000000000000000000000000000000000C9
:1047F00000000000000000000000000000000000B9
:1048000000000000000000000000000000000000A8
:104810000000000000000000000000000000000098
:104820000000000000000000000000000000000088
:104830000000000000000000000000000000000078
:104840000000000000E001FC0FFE1F0E1C073807EF
:1048500038033003300330033003300330033003B8
:1048600030033003300330073807380E1CFE1FFCBE
:104870000FE001000600078007C007E00778073C4B
:10488000070C0700070007000700070007000700E4
:1048900007000700070007000700070007000700E0
:1048A00007E003F80FFC1F0E3C063807700070008D
:1048B00070003000300018001C000E00078003C09C
:1048C00001600038001C000E00FE7FFF7FFF7FC0EC
:1048D00003F80FFC3F1E38067007700070003000B0
:1048E00038800FC00F403E00700060006000600024
:1048F00060076006700E78FC3FF80FC003001800D8
:104900001C001E001E001F801F801DC01CE01C70AC
:104910001C301C181C1C1C0E1C061CFF7FFF7FFF7C
:104920007F001C001C001C001C001CFC7FFC7FFC8A
:104930007F0C000C000E000E00C603F61FFE3F0E9B
:10494000780770006000600060006000600760062B
:10495000700E38FC3FF80FC0038007F01FF83F3C93
:10496000701C600E60060006008607E71FF73F1FF9
:10497000780F70076007600660066006600E701CA6
:1049800078F83FF01FC003FF7FFF7FFF7F003000FC
:1049900018000C000E0006000380038001C001C057
:1049A00000C000E000600070007000300030003097
:1049B0000038003800C003F80FFC3F1C380E700EA2
:1049C000700E700C301C38F81FF00FF81F1E380ED8
:1049D00070076007600760076006701E78FC3FF88C
:1049E0001FC003C003F80FFC1F1E380E70066007BF
:1049F000600760076007600E701E78FC6FF867E064
:104A00006100600060077006300E38FC1FF80FE090
:104A10000100000000000000000000000000000095
:104A20000000000000000000000000000000000086
:104A30000000000000000000001C001C001C000022
:104A40000000000000000000000000000000000066
:104A50000000000000000000000000000000000056
:104A60000000000000000000000000000000000046
:104A70000000000000000000000000000000000036
:104A8000000000FC3F0000000000000000000000EB
:104A90000000000000000000000000000000000016
:104AA00000002020202020002050500000000000A6
:104AB0005050F850F850502078A070283020C0C8CE
:104AC000102040981840A040A0908870101020003E
:104AD000000000204040404040201008080808081E
:104AE00010008850F8508800002020F82020000096
:104AF000000000404080000000F8000000000000BE
:104B00000000C0C000081020408000708898A8C82D
:104B1000887020602020202070700808708080F845
:104B2000F00808700808F008182848F80808F88005
:104B300080F0088870708080F0888870F80808100D
:104B400020408070888870888870708888781020ED
:104B50004000006060006060000060600020401065
:104B60002040804020100000F800F8000040201095
:104B70000810204070880830400040202070F0F07D
:104B8000F8F8205888F8888888F08888F08888F0B5
:104B900070888080808870F08888888888F0F880A5
:104BA00080F08080F8F88080F0808080708880803D
:104BB000988878888888F888888870202020202025
:104BC00070F81010109090608890A0C0A09088801D
:104BD0008080808080F888D8A88888888888C8A83D
:104BE0009888888870888888888870F08888F0809D
:104BF000808070888888A89878F08888F0A090884D
:104C0000788080700808F0F82020202020208888F4
:104C100088888888708888888888502088888888CC
:104C2000A8D8888888502050888888888850202074
:104C300020F80810204080F8E08080808080E0002C
:104C400080402010080038080808080838205088DC
:104C500000000000000000000000F8101008000034
:104C60000000000070888898688080F0888888F04C
:104C7000000078808080780808788888887800002C
:104C80007088F8807810287020202020000070881C
:104C90007808708080F08888888820002020202074
:104CA000202000202020A04080808890A0D0882054
:104CB0002020202020200000D0A8A8A8A80000B014
:104CC000C8888888000070888888700000F088F0A4
:104CD0008080000078887808080000B0C880808054
:104CE000000078807008F020207020202030000024
:104CF0008888889868000088888850200000888804
:104D0000A8A8500000885020508800008888F80823
:104D1000700000F8102040F82040408040402020E3
:104D2000202000202020201010081010200000500B
:104D3000A0000000000000000000000000000000D3
:104D40000000000000000000000000000000000063
:104D50000000000000000000000000000000000053
:104D60000000000000000000000000000000000043
:104D70000000000000000000000000000000000033
:104D80000000000000000000000000004B004B96F7
:104D9000CF0E0096CF0E4B0000000096CF0E4B00BA
:104DA00000000096CF0E4B0000000096CF0E4B0087
:104DB00000000096CF0E25B7B7B70196CF0E25009D
:104DC00000000096CF0E24B7B7B70396CF0E24008D
:104DD00000000096CF0E23B7B7B70596CF0E23007D
:104DE00000000096CF0E23B7B7B70596CF0E23006D
:104DF00000000096CF0E22B7B7B70796CF0E22005D
:104E000000000096CF0E21B7B7B70996CF0E21004C
:104E100000000096CF0E21B7B7B70A96CF0E20003C
:104E200000000096CF0E20B7B7B70C96CF0E1F002C
:104E300000000096CF0E1FB7B7B70C000000039616
:104E4000CF0E1D0000000096CF0E1FB7B7B70C00A5
:104E500000000496CF0E1C0000000096CF0E1EB777
:104E6000B7B70C0000000696CF0E1B00000000969E
:104E7000CF0E1DB7B7B70D0000000796CF0E1A0072
:104E800000000096CF0E1DB7B7B70C0000000896C3
:104E9000CF0E1A0000000096CF0E1CB7B7B70CB6A5
:104EA000B5B1010000000404070001000500010085
:104EB00000000396CF0E190000000096CF0E1BB71E
:104EC000B7B70D00000007444F1301000000039620
:104ED000CF0E180000000096CF0E1BB7B7B70D001D
:104EE00000000104010A01000000020002000100AC
:104EF0000700015E6F110196CF0E01222E00010006
:104F000000000396CF0E170000000096CF0E1AB7D0
:104F1000B7B70D000000061A270001A8C338019694
:104F2000CF0E017D901A01010D00010000000296D4
:104F3000CF0E170000000096CF0E1AB7B7B70D01BD
:104F40000100010000000104000F01000000010049
:104F5000020001000000016E84170196CF0E033598
:104F6000460001000000020002000196CF0E16006C
:104F700000000096CF0E19B7B7B70D000000010171
:104F800000000101000401000000032B3C00019619
:104F9000CF0E050000000396CF0E1600000000960D
:104FA000CF0E19B7B7B70C000B00010100000100CC
:104FB000000005809A130196CF0E053C4F000100BA
:104FC00000000396CF0E150000000096CF0E18B714
:104FD000B7B70D000000063C4E020196CF0E070049
:104FE000000001000B000296CF0E15000000009695
:104FF000CF0E18B7B7B70C00000003010005010081
:105000000000020312000186A12E0196CF0E074A6E
:10501000620001000A0001000B000100000001967F
:10502000CF0E140000000096CF0E17B7B7B70D00D3
:105030000000063952000196CF0E09000000010061
:105040000500010000000196CF0E1400000000963C
:10505000CF0E17B7B7B70C0000000600130001967B
:10506000CF0E0A4F67090100090001000B00010083
:1050700000000196CF0E130000000096CF0E16B769
:10508000B7B70D000000063850000196CF0E039E02
:10509000D2030196CF0E070000000396CF0E130037
:1050A00000000096CF0E16B7B7B70C000000050041
:1050B0000700010000000182A21D0196CF0E0B4FD8
:1050C000680201000800010000000296CF0E1200E5
:1050D00000000096CF0E15B7B7B70D000B00020009
:1050E0000308010000050100050101000D00013A5F
:1050F00056000196CF0E0796D1000196CF0E019C67
:10510000D2000196CF0E030000000496CF0E1100CE
:1051100000000096CF0E15B7B7B70C000B000200C9
:10512000020001000403010002010100040001006B
:105130000E0001789A0F0196CF0E0298CE000196CC
:10514000CF0E079ACE000196CF0E03000800010093
:1051500000000296CF0E110000000096CF0E14B78B
:10516000B7B703B5B5B501B7B7B709000B00010074
:105170000000020005000100040001000800012BEE
:1051800041000196CF0E0399D1000196CF0E0697EC
:10519000CF0A0199D10C0196CF0E030000000396AF
:1051A000CF0E110000000096CF0E14B7B7B701B5AF
:1051B000B5B501B7B7B70A00000001000B00020047
:1051C0000000046C87260196CF0E0594D308019346
:1051D000D4040196CF0E0597D2060196CF0E023267
:1051E000550001000000010002000196CF0E1100E1
:1051F00000000096CF0E14B7B7B70C000000060FE2
:1052000027000196CF0E0299CD080195CF01019498
:10521000D0000196CF0E0C000B000103090701001E
:105220000B000196CF0E100000000096CF0E13B7B2
:10523000B7B70D00000002000B00010000000100E4
:10524000040001000000014F6F020196CF0E111EF5
:1052500034000100060001000B000196CF0E100083
:1052600000000096CF0E13B7B7B702B5B5B501B7BA
:10527000B7B7090000000500050001000000018A21
:10528000B3290196CF0E12000900010002000100AF
:105290000B000196CF0E0F0000000096CF0E13B743
:1052A000B7B70C0000000306060401000000022846
:1052B0004400019CCB2F0196CF0E12001700010075
:1052C000070001000B000196CF0E0F0000000096B2
:1052D000CF0E12B7B7B70D000000065D811F019415
:1052E000C9210196CF0E1193C234012B4A0001004F
:1052F000090001000B000196CF0E0F000000009680
:10530000CF0E12B7B7B70C00000003010005010073
:105310000300010000000296CF0E15000B000100F3
:1053200002000196CF0E0F0000000096CF0E11B7BD
:10533000B7B70D000000061F43000197CA3D019654
:10534000CF0E098ABC250196CF0E0A000E0001007F
:10535000020001000B000196CF0E0E000000009627
:10536000CF0E10B7B7B70E00000001010005010015
:105370000000043C65000193CD2B0196CF0E08621E
:105380008E12012651000188BD250196CF0E090B12
:105390002800010000000296CF0E0E0000000096CB
:1053A000CF0E10B7B7B70E000B00010000040105C7
:1053B000000B01000005010006000100000001963D
:1053C000CF0E0A26490001001200015A8512018BF6
:1053D000C12D0196CF0E082D4D040100000002964C
:1053E000CF0E0E0000000096CF0E10B7B7B70E001C
:1053F0000B000101010301070000020000000296FA
:10540000CF0E088DC51A016893100100000001003D
:105410000B0001000000018ABA400196CF0E084837
:105420006A1D010000000296CF0E0E0000000096DB
:10543000CF0E10B7B7B70E0202020201000001053D
:105440000704010000000296CF0E09193B0001007D
:1054500008000100000002557C1F0196CF0E0900D4
:1054600000000296CF0E0E0000000096CF0E10B77F
:10547000B7B70E0000000201000001070904010097
:1054800000000296CF0E085F891901001200010288
:105490000A00010002020100000001072800018447
:1054A000B72A0196CF0E080000000296CF0E0E001C
:1054B00000000096CF0E0FB7B7B70F00000003072C
:1054C0000000010000000296CF0E0786C320011ED7
:1054D000410001000E000104080701000000010066
:1054E0000C0801000E00015586060185C4150196C1
:1054F000CF0E070000000296CF0E0E0000000096AF
:10550000CF0E0FB7B7B70F00000002010100010076
:105510000400010000000296CF0E0769A3100100ED
:105520001C0001000000051F4700017BB61C01960E
:10553000CF0E070000000296CF0E0E00000000966E
:10554000CF0E0FB7B7B70F0000000303050001002F
:105550000702010000000196CF0E073D7500010013
:1055600000000770A6340196CF0E070000000296D7
:10557000CF0E0E0000000096CF0E0FB7B7B70F0783
:105580000000020000000107000001000000029678
:10559000CF0E071548000100000007548826019629
:1055A000CF0E070000000296CF0E0E0000000096FE
:1055B000CF0E0FB7B7B70F000B00010101010100BB
:1055C000000003000A000196CF0E07093700010012
:1055D0000000073363000196CF0E06031F00010091
:1055E0000600010000000196CF0E0E00000000969C
:1055F000CF0E0FB7B7B70F000B000100000001007E
:1056000001000100000002000800010000000196F6
:10561000CF0E0608390001000000073E7206019611
:10562000CF0E06000000020004000196CF0E0E000F
:1056300000000096CF0E10B7B7B70E000B000200A7
:1056400000000596CF0E06235B0001070000010055
:1056500000000500140001609B230196CF0E051584
:105660003E00010000000100080001000500019655
:10567000CF0E0E0000000096CF0E11B7B7B70E0088
:105680000B00010000000696CF0E05589A16011671
:105690004D000100000005164D00016AAF21019682
:1056A000CF0E05000000020005020100060501966C
:1056B000CF0E0E0000000096CF0E11B7B7B70E0048
:1056C0000B00020000000596CF0E0647870D010073
:1056D000330001001D000100150001001900011632
:1056E00055000162AC170196CF0E050000000100C5
:1056F0000600010000000396CF0E0E000000009689
:10570000CF0E11B7B7B70F000B00020B000401005A
:1057100000000496CF0E110008000100000003965F
:10572000CF0E0F0000000096CF0E11B7B7B70F00D5
:105730000B0002040002010000000207060C010039
:1057400000000296CF0E0E000000020003020100CE
:1057500000000396CF0E0F0000000096CF0E12B788
:10576000B7B70E000B00020404020100000006009F
:1057700011000196CF0E0B000000050600000196F7
:10578000CF0E100000000096CF0E13B7B7B70E0073
:105790000B0001000000050101000100000012964D
:1057A000CF0E110000000096CF0E13B7B7B70F0051
:1057B0000B00030000001596CF0E110000000096AC
:1057C000CF0E14B7B7B710000B00030300000100A1
:1057D00000001196CF0E120000000096CF0E14B7F5
:1057E000B7B712000B000400040001000300010021
:1057F0000000080000050100000002000B000196F7
:10580000CF0E130000000096CF0E15B7B7B71500E6
:105810000B00010000000C96CF0E14000000009653
:10582000CF0E16B7B7B7180000000896CF0E1500B8
:1058300000000096CF0E16B7B7B71F96CF0E160012
:1058400000000096CF0E17B7B7B71D96CF0E170002
:1058500000000096CF0E18B7B7B71B96CF0E1800F2
:1058600000000096CF0E19B7B7B71896CF0E1A00E2
:1058700000000096CF0E1AB7B7B71696CF0E1B00D2
:1058800000000096CF0E1CB7B7B71396CF0E1C00C2
:1058900000000096CF0E22B7B7B70896CF0E2100B2
:1058A00000000096CF0E4B0000000096CF0E4B007C
:1058B00000000096CF0E4B0000000096CF0E4B006C
:1058C00000000000407A10F35A00A0724E18090040
:1058D00010A5D4E80000E87648170000E40B540255
:1058E0000000CA9A3B000000E1F505000080969890
:1058F00000000040420F000000A0860100000010E0
:105900002700000000E80300000000640000000021
:10591000000A00000000000100000000002C76D802
:1059200088DC674F0823DFC1DFAE59E1B1B796E5E8
:10593000E3E453C63AE651997696E8E6C28426EB4C
:10594000898C9B62ED407C6FFCEFBC9C9F40F2BA5F
:10595000A56FA5F490055A2AF75C936B6CF9676DF7
:10596000C11BFCE0E40D47FEF520E6B500D0ED904C
:105970002E0300943577050080841E080000204E19
:105980000A000000C80C333333330F986E128311B2
:1059900041EF8D2114893BE65516CFFEE6DB18D189
:1059A000844B381BF77C1D901DA4BBE4242032845B
:1059B000725E228100C9F124ECA1E53D27005D491A
:1059C000795911241FBECFEFD1E2DEBFCDBF00E079
:1059D0000CBF18E0A0E0B2E0E6EAFBE801E00BBF94
:1059E00002C007900D92AA31B107D9F71DE0AAE1D4
:1059F000B8E001C01D92A330B107E1F719E5C2EC90
:105A0000D9E504C02297FE010E946DBCCE3BD107B0
:105A1000C9F70E941EB40C94D1C50C9400000E94DA
:105A20005BBF08950E945BBF08950E94AEBE0895BB
:105A30000E94AEBE0895AC019B01641775070CF47B
:105A40009A01C9010895AC019B01461757070CF450
:105A50009A01C9010895FC0184E092E0918380835A
:105A6000CF010E94AA3F0895FC0184E092E0918357
:105A70008083CF010E94AA3F08950F931F938C014A
:105A800084E092E0F80191838083C8010E94AA3FDC
:105A9000C8010E94122D1F910F9108952F923F92DD
:105AA0004F925F926F927F928F929F92AF92BF922E
:105AB000CF92DF92EF92FF920F931F93DF93CF93DA
:105AC000CDB7DEB72E970FB6F894DEBF0FBECDBFB1
:105AD0006C016A8779018A0119011E870D870E946E
:105AE000943F84E092E0D6018D939C934701580146
:105AF00027010894411C511C3801E2E0F0E02E0E11
:105B00003F1E1A821B821C821D823B822A821D83B9
:105B10000C831E821F82188619863F822E824D8535
:105B20005E8541505040598748878EE090E00E9442
:105B3000182D8B879C875A855F5F598322E7222E19
:105B400028E9322E6A85452F9501840171010E9452
:105B5000DD9AF601ED5BFF4F8B8580839C859183F9
:105B60008EE090E00E94182DB82EA92E6A854981FA
:105B7000930182010E94DD9AF601EB5BFF4FB08238
:105B8000A1828EE090E00E94182DB82EA92E6A8581
:105B900049810A811B812C813D810E94DD9AF60199
:105BA000E95BFF4FB082A1828EE090E00E94182D49
:105BB000B82EA92E6A8549810E811F8128853985D5
:105BC0000E94DD9AF601E75BFF4FB082A18262E09E
:105BD00070E0D60151967C936E9350971F961C925D
:105BE0001E921E9781E090E01D969C938E931C97C9
:105BF0002FEF3FEF1B963C932E931A9719961C920A
:105C00001E92189717961C921E92169715963C9303
:105C10002E93149713969C938E93129791961C92A1
:105C20001E9290974EEF5FEF5F965C934E935E9758
:105C30005D963C932E935C975B963C932E935A977C
:105C400059961C921E92589757961C921E925697E0
:105C500055969C938E93549753969C938E935297FC
:105C6000D1965C934E93D0979F961C921E929E97CE
:105C70009D963C932E939C979B969C938E939A977C
:105C800099961C921E92989797961C921E929697A0
:105C900095969C938E93949793963C932E9392977C
:105CA000E0E4F0E0CE0EDF1ED6011D921C92E0EC87
:105CB000FFEFCE0EDF1ED601DF967C936E93DE974C
:105CC000DD969C938E93DC97DB969C938E93DA976C
:105CD000D9961C921E92D897D7961C921E92D69750
:105CE000D5963C932E93D497D3963C932E93D297EC
:105CF0002E960FB6F894DEBF0FBECDBFCF91DF91C9
:105D00001F910F91FF90EF90DF90CF90BF90AF90D9
:105D10009F908F907F906F905F904F903F902F90CB
:105D200008952F923F924F925F926F927F928F923F
:105D30009F92AF92BF92CF92DF92EF92FF920F931A
:105D40001F93DF93CF93CDB7DEB72E970FB6F8949E
:105D5000DEBF0FBECDBF6C016A8779018A011901D0
:105D60001E870D870E94943F84E092E0D6018D93B8
